:040000000BEF00F012
:100008005182FACF01F0FBCF02F00CED0DF0F7EFC3
:020018000DF0E9
:10060000002020205355434345535346554C20204A
:100610002000417474656D707473204F766572208C
:1006200020200046696C657320646F776E6C6F6183
:100630006465640050617373776F726420636861EE
:100640006E676564002020204576656E74732065B2
:100650007261736564002020204576656E74204CBD
:100660006F672020200054494D4520202020204540
:1006700056202053500020456E74657220506173DF
:1006800073776F726400506C656173652077616980
:10069000743A200054727920416761696E00417498
:1006A00074656D707473000A0D004F4E0000F28C7B
:1006B000F28E560E156E060E166E800E176EA9EC93
:1006C0000EF0000E72EC0FF0496E0A0E4918D8A415
:1006D00005D0000E0001AC6F010EAB6F0B0E491878
:1006E000D8A408D0000E0001AC6F020EAB6F000161
:1006F000AD4BAE2B0001AEBF16D0F50E0001AD5DC7
:10070000010E0001AE59D8A00ED00B0E4918D8A486
:100710000AD0000E0001AE6F000EAD6F000E00019A
:10072000866F010E856F0001850500018611D8A432
:1007300022D0000E00018E6F010E8D6F000E346E00
:10074000010E336E000E0001846F000E836F000EE9
:100750000001906F000E8F6F000E0001AC6F000E55
:10076000AB6F000E00018A6F010E896F000E0F6ED5
:10077000010E43EC10F04928D8A40DD00001AB05C0
:100780000001AC11D8A407D0454A462A000E00014A
:10079000AC6F000EAB6F4928D8A41FD0020E000129
:1007A000AB190001AC11D8A418D00001AEBF08D01D
:1007B000F40E0001AD5D010E0001AE59D8B00DD0B0
:1007C000000E0001926F000E916F4506D8A04606FC
:1007D000000E0001AC6F000EAB6F000185510001EF
:1007E0008611D8A412001D501E10D8A45FD01F502F
:1007F000455C20504658D8B0120046BE1200465004
:1008000003E14504D8A01200C00E1B6E4550300F06
:10081000ACEC10F0000E0001E46F000EE36F000E70
:10082000486E010E476E48BE08D0485005E1110ED3
:10083000475CD8B0120001D01200030E47184810D0
:10084000D8B405D0060E47184810D8A407D0475092
:10085000C00F1B6E3A0EACEC10F020D0090E4718FA
:100860004810D8B405D00C0E47184810D8A407D0AB
:100870004750C00F1B6E200EACEC10F00FD047504D
:10088000C00F1B6E45500A0DF3500001E32519EC13
:1008900010F0ACEC10F00001E34BE42B474A482A7F
:1008A00048BECBD7485001E1C2D712001D041E102C
:1008B000D8A4B7D0000E0001E66F000EE56FF29CE1
:1008C000F29E91EC0FF0000E0001E86F000EE76F52
:1008D00053D0000E0001E66F000EE56F000E000120
:1008E000EA6F000EE96F0001EABF08D00001EA518B
:1008F0003AE10F0E0001E95DD8B035D0020E0001DB
:10090000E9190001EA11D8B407D0050E0001E91970
:100910000001EA11D8A404D03A0EE1EC10F01FD087
:10092000080E0001E9190001EA11D8B407D00B0E36
:100930000001E9190001EA11D8A404D0200EE1EC6D
:1009400010F00DD00001E7510A0DF3500001E5252C
:1009500019EC10F0E1EC10F00001E54BE62B000182
:10096000E94BEA2BC0D7A70E106E060E116E2EECC7
:1009700010F00001E74BE82B31500001E75D3250E9
:100980000001E859D8A0A5D7000E0F6E010E43EC68
:1009900010F0230E156E060E166EC00E176EA9EC23
:1009A0000EF0200E0001D76FA10ED86F070ED96F81
:1009B000000EDA6FFF0E0001D727FF0ED823FF0EBF
:1009C000D923FF0EDA230001D729F4E10001D82949
:1009D000F1E10001D929EEE10001DA29D8A4EAD732
:1009E000000E0F6E010E43EC10F0000E0001866F3A
:1009F000010E856F000E0001846F000E836F000EE4
:100A00000001906F000E8F6F000E0001AC6F000EA2
:100A1000AB6F000E00018A6F010E896F9D989D9A41
:100A20001200020E1D181E10D8A445D0000E326E02
:100A3000000E316E450E156E060E166EC00E176E48
:100A4000A9EC0EF0200E0001DB6FA10EDC6F070E8B
:100A5000DD6F000EDE6FFF0E0001DB27FF0EDC23D3
:100A6000FF0EDD23FF0EDE230001DB29F4E1000190
:100A7000DC29F1E10001DD29EEE10001DE29D8A445
:100A8000EAD7000E0001846F000E836F000E000194
:100A9000906F000E8F6F000E0001AC6F000EAB6FF9
:100AA000000E00018A6F010E896F000E0001866F33
:100AB000010E856F1200030E1D181E10D8A412001F
:100AC00042BE06D042505AE1040E415CD8B056D026
:100AD0003C0E2F183010D8A405D0000E306E000E3A
:100AE0002F6E11D02FB007D04150C60F1B6E5F0E76
:100AF000ACEC10F008D02FA006D04150C60F1B6EF2
:100B0000200EACEC10F044BE06D0445037E1040E89
:100B1000435CD8B033D0080E4918D8B404D0090EBD
:100B20004918D8A42BD0080E4918D8A402D0000E1A
:100B3000496E090E4918D8A402D0010E496EB80EAC
:100B40004324D96E000E4420DA6E4950300FDF6E18
:100B5000B80E4324D96E000E4420DA6EDF50106EBA
:100B60004F50E9EC0FF04F2A4350C60F1B6E2A0E70
:100B7000ACEC10F0434A442A414A422A42BE1200D9
:100B8000425004E1040E415CD8A01200000E446EF5
:100B9000000E436E000E426E000E416E000E0F6E90
:100BA000010E43EC10F0340E156E060E166EC00EDC
:100BB000176EA9EC0EF0200E0001DF6FA10EE06FA2
:100BC000070EE16F000EE26FFF0E0001DF27FF0E40
:100BD000E023FF0EE123FF0EE2230001DF29F4E111
:100BE0000001E029F1E10001E129EEE10001E22943
:100BF000D8A4EAD7000E0F6E010E43EC10F0000EE1
:100C00000001846F000E836F000E0001906F000ED4
:100C10008F6F000E0001AC6F000EAB6F000E000175
:100C20008A6F010E896F000E0001866F010E856FBD
:100C30001200010E72EC0FF01F6E080E1F18D8A4E0
:100C400015D00001A1510001A211D8A40FD0000EAF
:100C50000F6E010E43EC10F0000E0001A26F010EAA
:100C6000A16F000E0001A06F010E9F6F0001A10592
:100C70000001A211D8A412000001995100019A119B
:100C8000D8A408D0760E156E060E166E800E176E5E
:100C9000A9EC0EF000019E5122E1040E00019D5DC1
:100CA000D8B01DD03C0E2F183010D8A405D0000E9F
:100CB000306E000E2F6E13D02FB008D000019D5162
:100CC000C60F1B6E5F0EACEC10F009D02FA007D042
:100CD00000019D51C60F1B6E100EACEC10F03E5083
:100CE00042E1040E3D5CD8B03ED0000E00019C6F86
:100CF000000E9B6F080E1F18D8B40AD0090E1F18DB
:100D0000D8A431D000019F510001A011D8A42BD04C
:100D1000080E1F18D8A402D0000E1F6E090E1F184F
:100D2000D8A402D0010E1F6E00019F510001A01136
:100D3000D8A414D0760E3D24D96E000E3E20DA6E73
:100D40001F50300FDF6E3D50C60F1B6E2A0EACECED
:100D500010F03D4A3E2A00019D4B9E2B000E0001E3
:100D6000A06F000E9F6F040E3D183E10D8A4120015
:100D70000001BE5105E1020E0001BD5DD8A0C2D048
:100D80000001BD07D8A0BE07000E406E000E3F6EEA
:100D9000405063E1040E3F5CD8B05FD0B80E3F24F2
:100DA000D96E000E4020DA6E760E3F24E16E000E02
:100DB0004020E26EDE50E618D8B44CD0000E0F6E24
:100DC000010E43EC10F0940E156E060E166E800E9A
:100DD000176EA9EC0EF0C00E1B6E0001BD51300F56
:100DE000ACEC10F09E0E156E060E166EC20E176E4F
:100DF000A9EC0EF0500E00017A6FC30E7B6F000E4F
:100E00007C6F000E7D6F00017A07000E7B5B7C5BC0
:100E10007D5B00017A29F7E100017B29F4E1000103
:100E20007C29F1E100017D29D8A4EDD7000E0F6ED9
:100E3000010E43EC10F0000E00019C6F010E9B6F41
:100E4000000E00019E6F000E9D6F000E3E6E000EA4
:100E50003D6E03D03F4A402A9BD700019B510001C1
:100E60009C11D8A41200000E0001BE6F030EBD6FCE
:100E7000000E406E000E3F6E000E00019E6F000ED1
:100E80009D6F000E3E6E000E3D6E000E0F6E010E49
:100E900043EC10F0010E156E060E166EC00E176EA6
:100EA000A9EC0EF0000E346E020E336E500E0001EF
:100EB0007A6FC30E7B6F000E7C6F000E7D6F00019A
:100EC0007A07000E7B5B7C5B7D5B00017A29F7E192
:100ED00000017B29F4E100017C29F1E100017D2979
:100EE000D8A4EDD7000E0F6E010E43EC10F0000EEB
:100EF0000001A26F000EA16F000E00018A6F010EAB
:100F0000896F12000001BE5170E1020E0001BD5D4B
:100F1000D8B01200120E156E060E166E800E176EE9
:100F2000A9EC0EF0860E156E060E166EC00E176E2C
:100F3000A9EC0EF0000E00019A6F010E996F000EE1
:100F40000001926F010E916F4B504C10D8B42BD012
:100F5000CD0E1B6E000E126E0A0E116E4BC00FF0FE
:100F60004CC010F004EC0FF00FC016F010C017F0DA
:100F7000000E196E0A0E186E51EC0FF01650300F5D
:100F8000ACEC10F0CE0E1B6E4BC016F04CC017F040
:100F9000000E196E0A0E186E51EC0FF01650300F3D
:100FA000ACEC10F01200000E00019A6F000E996F69
:100FB000000E0F6E010E43EC10F0000E0001A26F48
:100FC000010EA16F000E4C6E3C0E4B6E000E000128
:100FD000926F000E916F000E00019E6F000E9D6FCC
:100FE000000E3E6E000E3D6E12001200216E0001DA
:100FF000875100018811D8A41200800E1B6E2A0EA2
:10100000ACEC10F00A0E2118D8A44AD0394A3A2A7A
:10101000000E346E010E336E8D0E1B6E39C016F04D
:101020003AC017F0000E196E0A0E186E51EC0FF050
:101030001650300FACEC10F08E0E1B6E000E126EC0
:101040000A0E116E39C00FF03AC010F004EC0FF028
:101050000FC016F010C017F0000E196E0A0E186EB1
:1010600051EC0FF01650300FACEC10F08F0E1B6EE1
:10107000000E126E640E116E39C00FF03AC010F0FF
:1010800004EC0FF00FC016F010C017F0000E196E30
:101090000A0E186E51EC0FF01650300FACEC10F039
:1010A000F40E395C010E3A58D8A00ED00A0E211861
:1010B000D8A40AD0000E0001846F010E836F000EC9
:1010C0000F6E010E43EC10F0000183050001841146
:1010D000D8A42DD0000E3A6E000E396E000E346E7C
:1010E000000E336E000E0001906F010E8F6F000E28
:1010F0000001866F000E856F0001810500018211DD
:10110000D8A40BD035C01DF036C01EF0000E206EE6
:101110000A0E1F6E57EC03F00AD035C01DF036C022
:101120001EF031C01FF032C020F057EC03F00B0E60
:101130002118D8A45BD000018F5100019011D8A4D0
:1011400055D000018D5100018E11D8A44FD0374ADF
:10115000382A000E0001846F000E836F000E346E7B
:10116000020E336E8D0E1B6E37C016F038C017F0AE
:10117000000E196E0A0E186E51EC0FF01650300F5B
:10118000ACEC10F08E0E1B6E000E126E0A0E116E7D
:1011900037C00FF038C010F004EC0FF00FC016F09D
:1011A00010C017F0000E196E0A0E186E51EC0FF0F9
:1011B0001650300FACEC10F08F0E1B6E000E126E3E
:1011C000640E116E37C00FF038C010F004EC0FF051
:1011D0000FC016F010C017F0000E196E0A0E186E30
:1011E00051EC0FF01650300FACEC10F0E80E375CFD
:1011F000030E3858D8A00DD00B0E2118D8A409D052
:10120000000E386E000E376E000E0001886F010E62
:10121000876F0001870500018811D8A418D0000E3F
:10122000346E000E336E000E00018C6F000E8B6F5B
:10123000000E00018A6F000E896F000E0001906F92
:10124000010E8F6F000E0F6E010E43EC10F0F40EC6
:10125000375C010E3858D8B01200000E0001886FBC
:10126000000E876F2128D8A41BD033043410D8B4C3
:1012700005D0020E33183410D8A412D0000E00018D
:101280008E6F000E8D6F000E386E000E376E000EE2
:101290000001906F000E8F6F000E3A6E000E396ED7
:1012A0002128D8A410D033043410D8A40CD0365040
:1012B00006E1030E355CD8B002D0354A362A000E5E
:1012C000346E000E336E2128D8A410D0020E3318CD
:1012D0003410D8A40BD035503610D8B403D035060E
:1012E000D8A03606000E346E000E336E365038E14C
:1012F000040E355CD8B012002128D8A412000001D9
:101300008F5100019011D8A4120035C00FF036C0E3
:1013100010F0000E126E110E116E57EC10F0000E50
:101320000F24156E010E1020166E810E176EA9EC9B
:101330000EF0010E35240F6E000E3620106E000EDA
:10134000126E110E116E57EC10F0000E0F24156E78
:10135000010E1020166EC10E176EA9EC0EF01200D1
:1013600012000001E26F0001955100019611D8A40E
:101370000DD00001E229D8A409D0AA0E156E060EE0
:10138000166EC90E176EA9EC0EF09ED00001E20594
:10139000D8A410D0000E3C6E010E3B6E000E000172
:1013A000966F010E956F4DC01BF04EC01CF0CCEC3B
:1013B0000AF08AD0020E0001E219D8A410D0000E63
:1013C0003C6E020E3B6E000E0001966F010E956F93
:1013D0004DC01BF04EC01CF0CCEC0AF075D0030ED3
:1013E0000001E219D8A410D0000E3C6E030E3B6E33
:1013F000000E0001966F010E956F000E1C6E070E19
:101400001B6ECCEC0AF060D00001E229D8A40FD00A
:101410003B043C10D8A40BD04EBE06D04E501AE16F
:10142000060E4D5CD8B016D04D4A4E2A13D000019E
:10143000E229D8A414D0020E3B183C10D8A40FD037
:101440004EBE08D04E5003E14D04D8A003D04D0647
:10145000D8A04E06000E3C6E000E3B6E35D000014B
:10146000E229D8A40ED0030E3B183C10D8A409D012
:10147000D40E156E000E166EC90E176EA9EC0EF086
:1014800023D04EBE06D04E501FE1070E4D5CD8B0A3
:101490001BD04EBE19D0030E3B183C10D8B414D04C
:1014A0004DC00FF04EC010F0000E126E030E116E04
:1014B00057EC10F0BF0E0F24156E000E1020166EA4
:1014C000C90E176EA9EC0EF0AE0E1D6E230E1E6E29
:1014D000410E1F6E040EB0EC0FF00FC017F010C0DD
:1014E00018F06AEC10F017C01AF018C01BF019C001
:1014F0001CF042EC0CF01AC029F01BC02AF01CC0F2
:101500002BF0ABEC0BF029C02DF02AC02EF0CC0E46
:101510001B6E000E126E640E116E2DC00FF02EC0E9
:1015200010F004EC0FF00FC016F010C017F0000E12
:10153000196E0A0E186E51EC0FF01650300FACEC0D
:1015400010F0CD0E1B6E000E126E0A0E116E2DC025
:101550000FF02EC010F004EC0FF00FC016F010C00A
:1015600017F0000E196E0A0E186E51EC0FF016509F
:10157000300FACEC10F0CE0E1B6E2DC016F02EC04E
:1015800017F0000E196E0A0E186E51EC0FF016507F
:10159000300FACEC10F01200000E1F6E000E1E6E2D
:1015A000000E216E000E206E1CD0AF0E1E24D96ED0
:1015B000000E1F20DA6E3A0EDE18D8B410D0AF0E2F
:1015C0001E24D96E000E1F20DA6E600E2024E16EFC
:1015D000000E2120E26EDFCFE7FF204A212A1E4ABB
:1015E0001F2AAF0E1E24D96E000E1F20DA6EDF50A8
:1015F000D8A4DBD71BC00FF01CC010F0000E126E79
:10160000030E116E57EC10F0BF0E0F24D96E000EB2
:101610001020DA6E600E2024E16E000E2120E26EB2
:10162000DFCFE7FF204A212A1BC00FF01CC010F0BB
:10163000000E126E030E116E57EC10F0010E0F2605
:10164000000E1022BF0E0F24D96E000E1020DA6E8D
:10165000600E2024E16E000E2120E26EDFCFE7FF56
:10166000204A212A600E2024D96E000E2120DA6E35
:101670002DC00FF02EC010F0000E126E640E116E11
:1016800004EC0FF00F50300FDF6E204A212A600E5D
:101690002024D96E000E2120DA6E000E126E0A0E82
:1016A000116E2DC00FF02EC010F004EC0FF00FC023
:1016B00016F010C017F0000E196E0A0E186E51ECDD
:1016C0000FF01650300FDF6E204A212A600E2024C2
:1016D000D96E000E2120DA6E2DC016F02EC017F044
:1016E000000E196E0A0E186E51EC0FF01650300FE6
:1016F000DF6E204A212A000E216E000E206E21BED0
:1017000006D0215015E10B0E205CD8B011D0600E30
:101710002024D96E000E2120DA6EDF50106E315079
:101720000A0DF3502024E9EC0FF0204A212AE7D7D4
:10173000325007E10A0E315CD8B003D0314A322A68
:101740001200000E0001826F010E816F000E326EDA
:10175000000E316E12002BC0D7F00001D86BD96B90
:101760002A340001D73701E3D8810001D7510001A5
:10177000E16F0001E151D8A409D0000E296E000EDE
:101780002A6E000E2B6E000E2C6E1200170E00013A
:10179000D76F29C0D8F02AC0D9F02BC0DAF00001E9
:1017A000D7290001DB6F05D00001D890DA33D93397
:1017B000D8330001DB2FF8D70001D8510001DC6FCE
:1017C0002A8EFF0E2916FF0E2A16000E2B16295000
:1017D0000001DD6F2A500001DE6F2B500001DF6F2A
:1017E0000001E06B8E0E0001E15F0001E1AF19D056
:1017F0000001E151800A8F0FD8B009D0000E296E88
:10180000000E2A6E000E2B6E000E2C6E12000001D0
:10181000D890E033DF33DE33DD330001E13FF7D72B
:101820001AD0170E0001E16511D0000E296E000ECE
:101830002A6E000E2B6E000E2C6E12000001D89046
:10184000DD37DE37DF37E0370001E1070001E15126
:101850000001D8A4F3D70001DC510001D8B409D0AD
:101860000001E01FDF1FDE1FDD6D000EDE23DF2322
:10187000E023DDC029F0DEC02AF0DFC02BF0E0C09D
:101880002CF012001CC020F0216A226A1B34203682
:1018900001E321802050276E2750D8A407D0000EE6
:1018A0001A6E000E1B6E000E1C6E12001FC020F080
:1018B000216A226A1E34203601E321802050286EDE
:1018C0002850D8A407D0000E1A6E000E1B6E000E12
:1018D0001C6E1200000E246E000E256E000E266E89
:1018E0002850890F275E1CC028F01F50281A800E30
:1018F00028161B8EFF0E1A16FF0E1B16000E1C1646
:101900001E8EFF0E1D16FF0E1E16000E1F16180E41
:10191000236ED8902436253626361D501A5C1E506C
:101920001B581F501C58D8A007D01D501A5E1E50BF
:101930001B5A1F501C5A2480D8901A361B361C364E
:10194000232EE7D724C00FF025C010F026C011F0D9
:1019500027C012F028C013F0B5EC0CF00FC01AF03D
:1019600010C01BF011C01CF012001250D8B405D0EA
:101970000F5010101110D8A40CD0000E0F6E000ED6
:10198000106E000E116E1200122AD8901132103211
:101990000F32000E0F14146E000E1014156EFE0E92
:1019A0001114166E145015101610D8B40CD0ECD7B4
:1019B000122A010E0F26000E1022000E1122D890BE
:1019C000113210320F32000E0F14146E000E10146C
:1019D000156EFF0E1114166E145015101610D8B493
:1019E00006D0E6D71206D8900F361036113610BE44
:1019F00003D0020E1260F6D712A0109ED8901232B9
:101A0000125011121350D8A4118E0FC00FF010C035
:101A100010F011C011F012000600E9CF03F0EACF78
:101A200004F0E1CF05F0E2CF06F0D9CF07F0DACF2E
:101A300008F0F3CF09F0F4CF0AF0F6CF0BF0F7CFB0
:101A40000CF0F8CF0DF0F5CF0EF09EA21CD00001E7
:101A5000A54BA62B210E0001A51915E14E0E000184
:101A6000A619D8A410D02F4A302A000191050001F0
:101A70009211D8A403D04B06D8A04C06000E00014A
:101A8000A66F000EA56F9E920EC0F5FF0DC0F8FF69
:101A90000CC0F7FF0BC0F6FF0AC0F4FF09C0F3FF4C
:101AA00008C0DAFF07C0D9FF06C0E2FF05C0E1FFAA
:101AB00004C0EAFF03C0E9FF02C0FBFF01C0FAFF58
:101AC0005192110076EC0EF0000E72EC0FF0000156
:101AD000EB6F080E0001EB19D8A406D0000E000130
:101AE0008C6F010E8B6F1BD0080E0001EB19D8B460
:101AF00016D000018B5100018C11D8A410D0660EB5
:101B0000156E060E166E800E176EA9EC0EF0AFEC79
:101B10000DF0CCEC10F00001EB51B1EC09F000013C
:101B20008B0500018C11D8A40AD000018951000155
:101B30008A11D8A404D00001EB5119EC06F0000181
:101B4000890500018A11D8A4BFD7000E0001886F53
:101B5000000E876F0001EB51F6EC07F0B5D7020ECF
:101B600004EC10F000017E6F010E04EC10F0000197
:101B70007F6F000E04EC10F00001806F00017EAD5D
:101B800005D000017E390F0B010B04D000017E3916
:101B90000F0B030B300F0001AF6F00017E510F0BD5
:101BA000300F0001B06F3A0E0001B16F00017F39B4
:101BB0000F0B0F0B300F0001B26F00017F510F0BA5
:101BC000300F0001B36F3A0E0001B46F000180398D
:101BD0000F0B0F0B300F0001B56F000180510F0B81
:101BE000300F0001B66F000E0001B76F120000EE5B
:101BF00060F0580EEE6AE806FDE100EE2DF01E0ED4
:101C0000EE6AE806FDE1B20EF66E1D0EF76E000EEE
:101C1000F86E01EE00F010EE55F00900F5CFEEFF82
:101C2000E550E150FAE11A0EF66E210EF76E000E45
:101C3000F86E00EEB8F010EE1FF00900F5CFEEFFE1
:101C4000E550E150FAE1FE0EF66E210EF76E000E41
:101C5000F86E00EE4BF010EE06F00900F5CFEEFF47
:101C6000E550E150FAE151905192000EF86E0001FA
:101C700062EF0DF0819A818C818E81B202D0010ECB
:101C8000120081B402D0040E120081B602D0070EF9
:101C9000120081B802D00A0E1200818A819C818EC6
:101CA00081B202D0020E120081B402D0050E1200E1
:101CB00081B602D0080E120081B802D00B0E1200BD
:101CC000818A818C819E819E81B202D0030E120096
:101CD00081B402D0060E120081B602D0090E1200A5
:101CE00081B802D00C0E1200FF0E1200CEEC0FF0E5
:101CF000B8EC10F02DEC0FF0C3EC10F07CEC10F011
:101D0000D5EC10F0F28EF28C660E156E060E166E85
:101D1000800E176EA9EC0EF0C80E186E000E1A6E2B
:101D2000000E196E1ABE06D01A5012E1040E195C8C
:101D3000D8B01200B80E1924D96E000E1A20DA6E2F
:101D4000185019EC10F0DF6E182A194A1A2AEAD72F
:101D50001200000E0F6E175043EC10F016D0010E5B
:101D60000F6E15C0F6FF16C0F7FFF86A050EF76490
:101D700003D00800F55005D0F6CFE9FFF7CFEAFF12
:101D8000EF5043EC10F0154A162A15C0F6FF16C0A6
:101D9000F7FFF86A050EF76403D00800F55005D088
:101DA000F6CFE9FFF7CFEAFFEF500009D8B41200F1
:101DB000D6D756696577206C6F67202020202020B9
:101DC000202000446F776E6C6F6164206C6F672019
:101DD00020202000436C656172206C6F67202020FA
:101DE00020202020004368616E6765205057442002
:101DF0002020202000002020202020202020202023
:071E0000202020202020001B
:101E0800000E156E000E146E11501210D8B41CD0AE
:101E1800010E136E04D0D89011361236132A12AE62
:101E2800FAD7D8901436153611500F5C1250105846
:101E3800D8A005D011500F5E1250105A1480D890B7
:101E480012321132132EEDD714C00FF015C010F056
:101E58001200000E04EC10F0126E12508009106E81
:101E6800000E9DEC10F0020E04EC10F0126E1250F1
:101E78004009106E020E9DEC10F0930E106E070EC6
:101E88009DEC10F0000E04EC10F0126E12507F0B57
:101E9800106E000E9DEC10F0120018501910D8B4F6
:101EA80018D0010E1A6E04D0D890183619361A2A8E
:101EB80019AEFAD71850165C19501758D8A004D084
:101EC8001850165E1950175AD890193218321A2E0F
:101ED800F1D716C016F017C017F012000F6E0F04D6
:101EE800D8A413D03AEC0EF04A6E4A28D8B407D0DA
:101EF8005050D8B404D0000E506E4A5012004A28F0
:101F0800D8A409D0010E506E06D00F50D8A403D023
:101F18003AEC0EF01200FF0E1200948E949CAC9EC8
:101F2800AC9CAC8AAC98AC96AC84AC92AC90AB8EC2
:101F3800AB9CAB9AAB88AB96AB94AB92AB90B89E8C
:101F4800B88CB898B896B892B890810EAF6E9D8844
:101F58009E989D8A9E9A1200136E13C011F0D89015
:101F68001136D8901136C250C30B1110C26EC282FE
:101F7800C2B2FED7C350C4CF11F0126A11C012F01A
:101F8800116A1110146E1250156E14C00FF015C09E
:101F980010F01200000E956E9450F80B946E82901B
:101FA800000E0F6E020E43EC10F0000E0F6E380E8E
:101FB80043EC10F0000E0F6E0C0E43EC10F0000E08
:101FC8000F6E010E43EC10F01200116EEBEC10F0E6
:101FD800A00EDBEC10F01150DBEC10F01050DBEC35
:101FE80010F0E7EC10F0C30E136E500E126E1206CE
:101FF800D8A013061228FBE11328D8B41200F7D78B
:10200800106EEBEC10F0D00EDBEC10F01050DBECA7
:1020180010F0EFEC10F0D10EDBEC10F0F3EC10F058
:10202800116EE7EC10F011501200106EEBEC10F08E
:10203800A00EDBEC10F01050DBEC10F0EFEC10F021
:10204800A10EDBEC10F0F3EC10F0116EE7EC10F0E1
:10205800115012000AD010C0F6FF11C0F7FF080097
:10206800F550E1EC10F0104A112A10C0F6FF11C02B
:10207800F7FF0800F5500009D8B41200ECD7106E2D
:102088000FA002D0828201D0829210C083FF828486
:102098008294958E828082928284829483BEFCD7B9
:1020A8008290959E12000F501102F3CF13F0F4CFD7
:1020B80014F00F501202F350142610501102F3506E
:1020C800142613C00FF014C010F0120017C00FF040
:1020D80018C010F0116A8E0E126E000E136EB5EC59
:1020E8000CF00FC017F010C018F011C019F0120052
:1020F800C08EC08AC098C096C090C082C094C29258
:10210800C288C19AC198000EC46E000EC36EC28008
:102118001200303030300003004E55004731004780
:1021280032004733004734004735005220004352FD
:0121380000A6
:10213A00116EEBEC10F0D00EDBEC10F01150DBEC72
:10214A0010F01050DBEC10F0E7EC10F012001C6EEF
:10215A00000E0F6E1B5043EC10F0010E0F6E1C5058
:10216A0043EC10F0120094869488280EC66E310E45
:10217A00C86EC79CC78E9E96A19612000F0EC16E9E
:10218A001E0E936EF19E8150E009816E1200AF0E11
:10219A00156E000E166EC00E176EA9EC0EF0120028
:1021AA00CA84FA0ECB6E9E929D8212000F6E0FC0E9
:1021BA00C9FFFBEC10F012000F6E9EA8FED70FC0ED
:1021CA00ADFF1200C584FBEC10F01200C580FBECD9
:1021DA0010F01200C582FBEC10F01200F7EC10F0C0
:1021EA00C9501200C586FBEC10F012009EA6FED75D
:0A21FA009E9612003C00FFFFC80192
:00000001FF
