:04000000ADEF17F059
:102F5A000001CDEF17F09EA6FED79E961200C580FF
:102F6A00B0EC17F01200C584B0EC17F01200016E35
:102F7A0001C0C9FFB0EC17F0120094869488280E9D
:102F8A00C66E310EC86EC79CC78E9E96A196120059
:102F9A00C2EC17F0300E026EC80EE5EC17F0300ED8
:102FAA00026EC90EE5EC17F0300E026ECA0EE5ECA1
:102FBA0017F0300E026ECB0EE5EC17F000EF00F0C2
:102FCA00056EB4EC17F0A00EBCEC17F00550BCEC83
:102FDA0017F00250BCEC17F0B8EC17F0C30E046EF1
:102FEA00500E036E0306D8A004060328FBE104284A
:062FFA00D8B41200F7D765
:00000001FF
